:1000000002000375816112013CE582600302006F0A
:10001000780079007A007B007C007D00EC4D601C4C
:1000200088828983E493A3A882A9838A828B83F040
:10003000A3AA82AB831CBCFFE31D80E07582007520
:1000400083007C007D00EC4D600AE4F0A31CBCFF43
:10005000F51D80F27582007583007C007D00EC4DFB
:10006000600AE4F0A31CBCFFF51D80F212013B12F4
:10007000063D80FE4C434420342D62697420746533
:1000800073743A001B5B324A0045464D3820467275
:10009000657175656E6379206D6561737572656DE7
:1000A000656E74207573696E672054696D65722F73
:1000B000436F756E74657220302E0A46696C653A1E
:1000C0002025730A436F6D70696C65643A2025734F
:1000D0002C2025730A0A00433A5C55736572735CE1
:1000E0006A696E696C5C4465736B746F705C454CD7
:1000F00045435C454C4543203239315C4C414234E8
:100100005C667265716F6E6C63642E63004D617224
:1001100020203420323032300031323A31313A341A
:1001200031000D663D256C75487A001B5B304B0035
:100130003C4E4F20464C4F41543E002275A700755F
:1001400097DE7597AD43FF8075EF0275A71075C1F7
:100150002075A70075A90075A900E5A930E7FB7512
:10016000A90375A903E5A930E7FB43A41075E101D4
:1001700075E21075E340759810858E8E758DE68555
:100180008D8B53890F438920D28ED299758200229C
:10019000AA82438E407592B87593FF859294859399
:1001A000957591047B00C3EB9A5012E59130E7FB03
:1001B00053917F108D02800205220B80E97591001A
:1001C00022AA82AB83BA0004BB0001227582F9C067
:1001D00002C0031201907582F91201907582F91222
:1001E00001907582FA120190D003D0021ABAFF0171
:1001F0001B80D25389F0438905C28C22D2A5758217
:1002000028120190C2A522AA828AE0A2E792A1A2A6
:10021000E692A2A2E592A3A2E492A4C0021201FC7B
:10022000758228120190D0028AE0A2E392A1A2E294
:1002300092A2A2E192A3A2E092A40201FCAA82D21D
:10024000A68A821202079000020201C1AA82C2A6F7
:100250008A821202079000050201C1C2A590001413
:100260001201C175823312024C75823312024C7531
:10027000823212024C75822812024C75820C1202D4
:100280004C75820112024C9000140201C1AA82AB8B
:1002900083ACF07402B523047DC080027D808D8222
:1002A000C002C003C00412024C9000051201C1D06C
:1002B00004D003D0027D007E00ED2AFFEE3BF88CD7
:1002C000018F82888389F012075FFF60208F82C0D0
:1002D00002C003C004C005C00612023DD006D0050E
:1002E000D004D003D0020DBD00CF0E80CC3000244E
:1002F0008D028E03C3EA9410EB64809480501575D0
:100300008220C002C00312023DD003D0020ABA000C
:10031000E30B80E02285822685832785F028E4F59B
:1003200029F52AE52424FFFFE52534FFF879007A32
:1003300000C3E99FEA648088F063F08095F050592B
:10034000C002C007C000C00112093BAB82D001D07F
:1003500000D007D002BB0A028003BB0D1DE5292592
:1003600026FCE52A3527FDAE288C828D838EF0E4AD
:1003700012094E852982852A8322E92526FCEA3541
:1003800027FDAE288C828D838EF0EB12094E09B9C1
:1003900000010A89298A2A8098E5292526FAE52A72
:1003A0003527FBAC288A828B838CF0E412094E85BA
:1003B00024828525832285825285835385F054E5E6
:1003C0005024FFFDE55134FFFEE4F555F556C3E535
:1003D000559DE55664808EF063F08095F0505EE5A3
:1003E000552552F9E5563553FAAB5489828A838BE9
:1003F000F012075FFC8C573395E0F558ED2552F568
:1004000059EE3553F55A85545B855982855A838553
:100410005BF012075FFC89828A838BF012094EAA77
:1004200057855982855A83855BF0EA12094E055536
:10043000E4B5550205561DBDFF011E809122AA821A
:10044000AB83E4F530F531EA4B6058AE30AF31059F
:1004500030E4B530020531EE252BFEEF352CFFA838
:100460002D75500AE4F5518A828B83C002C003C007
:1004700006C007C0001208F2A982D000D007D0063B
:10048000D003D0027430298E828F8388F012094EF7
:1004900075500AE4F5518A828B83120967AA82ABF0
:1004A0008380A4AA30AB31C3EA952EEB6480852FFC
:1004B000F063F08095F050208A048B050ABA0001A1
:1004C0000BEC252BFCED352CFDAE2D8C828D838E17
:1004D000F0743012094E80CF8A508B51852B828563
:1004E0002C83852DF0C002C0031203B6D003D002C6
:1004F000EA252BFCEB352CFDAE2D8C828D838EF006
:10050000E412094E8A828B8322AA82AB837C017D0E
:1005100000AE32AF33C3E49EE464808FF063F080BA
:1005200095F050268A508B518C828D83C002C00377
:10053000C006C00712089FAC82AD83D007D006D09A
:1005400003D0021EBEFF011F80CB8C828D83020967
:10055000AAAA82AB83ACF0FDC002C003C004C005F0
:100560001207C885823985833A1209AAA882A9830D
:10057000AEF0FFD005D004D003D002C000C001C04F
:1005800006C0078A828B838CF0ED12099F85823B1F
:1005900085833C85F03DF53EE58124FCF58185347D
:1005A0002B85352C85362DE4F52EF52F8539828562
:1005B0003A8312043EAE82AF83E53745387001229C
:1005C000EE2534FEEF3535FFA8368E828F8388F016
:1005D000742E12094E85373285383390000AC006D2
:1005E000C007C000120509A982AA83ABF0FCC001B4
:1005F000C002C003C004853B82853C83853DF0E595
:100600003E1207FC85823B85833C85F03DF53EE547
:100610008124FCF581853B82853C83853DF0E53E68
:100620001207C8D000D007D00674012EF52BE43F86
:10063000F52C882D85372E85382F02043E12025B5B
:10064000752301D20090007475F08012028D1201A2
:10065000F39001F41201C17484C0E07400C0E0742E
:1006600080C0E01208D11581158115817419C0E090
:100670007401C0E07480C0E0740DC0E07401C0E09B
:100680007480C0E074D7C0E07400C0E07480C0E043
:100690007489C0E07400C0E07480C0E01208D1E545
:1006A0008124F4F581758A00758C00752200C28D55
:1006B000D28C9003E81201C1C28CAA227B008B0568
:1006C0008A047B007A00AE8C7F00780088018F005E
:1006D0008E07E42AFAEF3BFBE83CFCE93DFDAE8ADD
:1006E000E4FF3395E0F8F9EE2AFAEF3BFBE83CFC37
:1006F000E93DFD8A828B838CF0C002C003C004C038
:1007000005120928AE82AF83A8F0F975343F75351C
:1007100000753640753704E4F5388E828F8388F093
:10072000E9120551752302D20090003F75F0401286
:10073000028D7422C0E07401C0E07480C0E0120831
:10074000D1E58124F9F581742BC0E07401C0E07417
:1007500080C0E01208D11581158115810206A520FF
:10076000F71430F6148883A88220F507E6A883756D
:10077000830022E280F7E49322E022E550455160B5
:10078000467A01E55025E0F550E551334012F55128
:10079000E5829550E583955140030A80E6C3E55113
:1007A00013F551E55013F550C3E5829550F5F0E58A
:1007B0008395514005F58385F082C3E55113F551CA
:1007C000E55013F550DAE1221209E0700AE582459E
:1007D0008345F0700122E430D112F4700BE5F0F49F
:1007E0007006E58330E7012290800022700AE5F070
:1007F0007006E58320E70122907FFF22120ABDBC2C
:100800000003020A5CEF60FA30D502B2D1E583B48E
:10081000FF03020A72E582B4FF03020A72258340D5
:10082000072482400B020A5C2483145003020A72DC
:10083000F582EA8DF0A4A8F0EA8EF0A428F8E43559
:10084000F0F9EB8DF0A428E935F0F9E433CA8FF024
:10085000A429F9EA35F0FAEBF88EF0A429F9EA3583
:10086000F0FAE433FBEC8DF0A429F9EA35F0FAE470
:100870003BFBE88FF0A42AFAEB35F0FBE433CCFD28
:100880008EF0A42AFAEB35F0FBE43CFCED8FF0A4EB
:100890002BFBEC35F0FC20E703120A8A020A3BE549
:1008A000828550F0A4C582C0F08551F0A4D0F02517
:1008B000F0C5838550F0A42583F5832202110B85B2
:1008C000821885831985F01A85091B9008BC020BD4
:1008D00074C008858108E50824FBF51BE50824FBA6
:1008E000F8861808861908861A9008BC120B74D06E
:1008F0000822C2D5E58330E70DD2D5E4C39582F551
:1009000082E49583F583E55130E70BE4C39550F518
:1009100050E49551F55112077B30D50BE4C3958215
:10092000F582E49583F58322FCABF0AA83A9827457
:100930009EC2D1F582120A8A020A3B10980280FBFD
:10094000AA998A82C00212110BD0028A822220F751
:100950001030F6118883A88220F507F6A8837583E6
:100960000022F280F7F022C2D5E58330E70DD2D520
:10097000E4C39582F582E49583F583E55130E70D74
:10098000B2D5E4C39550F550E49551F5511209B72D
:1009900030D50BE4C39582F582E49583F58322A8D4
:1009A000811818C6B2E7C6021120AC83AB827A0068
:1009B0007900748E0211827A10E4FBFCE58225E056
:1009C000F582E58333F583EB33FBEC33FCEB955099
:1009D000F5F0EC95514006FCABF0438201DADD22E4
:1009E0001211A6C3749E9582403979001211B83055
:1009F000D126E9F42401F582EAF43400F583EBF41E
:100A00003400F5F0ECF43400700AE582458345F0DB
:100A1000700122E430E70F22EC20E71489828A83F8
:100A20008BF02230D10AE4F582F583F5F074802250
:100A300074FFF582F583F5F0747F22B98003EA1321
:100A4000B34010EA2401FAE43BFBE43CFC50047C94
:100A5000800582BC000EBB000BBA0008E4F5F0F57F
:100A600083F58222A2D1E582138CF092F78B838AE0
:100A70008222E4F583F58275F080F4A2D11322E49A
:100A8000F583F58275F0C0747F227804EC7011E56F
:100A90008224F8500AF582E4C9CACBFCD8EF22ECD4
:100AA0007820058220E713D5820122C3E933F9EAD1
:100AB00033FAEB33FBEC33FCD8EA158222AA82AB83
:100AC00083A2F73392D16002D2F7F582ACF0E581D0
:100AD00024F9F8E6FD08E6FE0886F008E6A2F733FA
:100AE00092D56002D2F7F583AFF022AA8274FCC0DF
:100AF000E0740AC0E0C00AC00B8A82220511E4B586
:100B00001102051222AA8274302AFA24C6500A74ED
:100B1000072AFA3001034302208A82020AEBE582A7
:100B2000FAC4540FF582C002120B05D002740F5A9A
:100B3000F582020B05AA0CAB0DAC0EAD0FAE107515
:100B40001720EE2EFEED235401FF4206EA2AFAEBAF
:100B500033FBEC33FCED33FDC3EE95134008EEC3DD
:100B60009513FE430201D517D98A0C8B0D8C0E8D7F
:100B70000F8E102285820A85830BE4F511F512AAE7
:100B800018AB19AC1A8A828B838CF012075FFD7444
:100B9000012AF518E43BF5198C1AEDFA70030211DD
:100BA00004BA250280030210FCC205C206C207C2B5
:100BB00008C209C20AC20BC20CC202C203C2047537
:100BC00013007514007515FFAB18AC19AD1A8B82A4
:100BD0008C838DF012075FFAA3AB82AC838B188CE9
:100BE000198D1ABA25078A82120AEB80928A06BEEC
:100BF0003000402E8A06EE24C6402774FFB5151338
:100C0000E51475F00AA4FEEA24D02EF51470BFD2C4
:100C10000680BBE51575F00AA4FEEA24D02EF51572
:100C200080ACBA2E0A74FFB515A4751500809F8A92
:100C300006BE6100400E8A06EE248540075302DF9F
:100C4000D2018002C201BA20028075BA2303020CCD
:100C5000CFBA2A03020CD4BA2B02805FBA2D0280CD
:100C600055BA4202805FBA4303020D19BA44030227
:100C70000E54BA4503020E6EBA4603020E6ABA4714
:100C800003020E72BA4903020E54BA4C02803BBAF8
:100C90004E03020E76BA4F03020E5BBA5003020DEA
:100CA000EDBA5303020D3DBA5503020E60BA580364
:100CB000020E65020EA0D205020BCED207020BCEA9
:100CC000D208020BCED20A020BCED20B020BCED22E
:100CD0000C020BCE74FFB51520300A0BE51B14F87F
:100CE000881B8614020BCEE51B24FEF8881B8606A3
:100CF000088607188E14020BCE300A0BE51B14F879
:100D0000881B8615020BCEE51B24FEF8881B860681
:100D1000088607188E15020BCE300A0AE51B14F858
:100D2000881B8602800FE51B24FEF8881B860308BB
:100D30008604188B028A82120AEB020EA5E51B2498
:100D4000FDF8881B860308860408860518188B0C96
:100D50008C0D8D0E8B828C838DF01211FBAB82ACCF
:100D6000838B1674FFB5150385161520051DC3E585
:100D70001695145016E514C39516F514AB141514F6
:100D8000EB6008758220120AEB80F1850C82850DDC
:100D900083850EF012075FFBFA6029AB151515C3AA
:100DA000E464808BF063F08095F050188A82120A18
:100DB000EBAB0CAC0DAD0E0BBB00010C8B0C8C0D1A
:100DC0008D0E80C7200503020EA5C3E516951440BD
:100DD00003020EA5E514C39516F514AB141514EB18
:100DE0007003020EA5758220120AEB80EEE51B242B
:100DF000FDF8881B860308860408860518188B0CE6
:100E00008C0D8D0EE50EFB30E7047A438013EB5416
:100E10006060047A50800AEB30E6047A4980027AF6
:100E2000588A82C002120AEB75823A120AEB758266
:100E300030120AEB758278120AEBD002BA490280AE
:100E40000BBA50028006850D82120B1E850C821291
:100E50000B1E8051D20975130A804A75130880450C
:100E600075130A8040751310803BD2028037D2037D
:100E70008033D204802FE51B24FDF8881B860308ED
:100E8000860408860518188B0C8C0D8D0E8B828CB1
:100E9000838DF0E51112094EA3E51212094E80056B
:100EA0008A82120AEB20020620030330045AE51B53
:100EB00024FCF8881B860308860408860508860635
:100EC0001818188B0C8C0D8D0E8E0F750C30750D3F
:100ED00001750E80850C1C850D1D850E1E74012567
:100EE0001CFEE4351DFFAB1E8E0C8F0D8B0E851C7A
:100EF00082851D83851EF012075FFBFA7003020BCB
:100F00007F8A82120AEB80CCE5137003020B7F7B91
:100F100061300A2BE51B14F8881BE6FC3395E0FDD5
:100F2000FEFF8C0C8D0D8E0E8F0F20095EAC0C7D9C
:100F3000007E007F008C0C8D0D8E0E8F0F804C304C
:100F40000B1FE51B24FCF8881B8604088605088611
:100F5000060886071818188C0C8D0D8E0E8F0F80C2
:100F60002AE51B24FEF8881B860408860518ED3345
:100F700095E0FEFF8C0C8D0D8E0E8F0F20090CACB2
:100F80000CAD0D7E007F008E0E8F0F300C43E50CF4
:100F9000450D450E450F60397408B5130C75823048
:100FA000C003120AEBD00380287410B51323758296
:100FB00030C003120AEBD00330010C758278C003F5
:100FC000120AEBD003800A758258C003120AEBD0D4
:100FD00003300925AC0CAD0DAE0EE50FFF30E71761
:100FE000C3E49CFCE49DFDE49EFEE49FFF8C0C8D1D
:100FF0000D8E0E8F0F8002C209751600D20D8B0068
:10100000751000C000120B35D000200D0DE510C486
:10101000FCE6FD4CF61888038002A6100516B20DFA
:10102000E50C450D450E450F70D68803E514700399
:1010300075140120061A200517E51604FCC3951443
:10104000500E758220C003120AEBD003151480E9FC
:1010500030090E75822DC003120AEBD003151480DF
:1010600024E516602030070E75822BC003120AEBB0
:10107000D0031514800F30080C758220C003120AAB
:10108000EBD003151420051EAC141514C3E5169CF3
:1010900050273006047C3080027C208C82C00312F2
:1010A0000AEBD00380E2C3E51695145009E514C39A
:1010B0009516F51480037514008B00AB161516EB0E
:1010C0006022B20D200D0A08E6C4540FFB8B10807D
:1010D000078603740F5BF510851082C000120B05A4
:1010E000D00080D7200503020B7FAB141514EB70E2
:1010F00003020B7F758220120AEB80EE8A82120AAD
:10110000EB020B7F85118285128322AA82BA0A081C
:1011100010990280FB75990D10990280FB8A992223
:10112000120ABD7900E583B58202800D50031212C8
:1011300023E583C395821211B8E5D0C465D020E1C0
:1011400017EA2DFAEB3EFBEC3FFC5009740112113B
:10115000B8EC4480FC020A3BC3EA9DFAEB9EFBEC30
:101160009FFC500FC3E499F9E49AFAE49BFBE49CDA
:10117000FCB2D1120A8A020A3BFCABF0AA83A98214
:10118000749EF582C2D1EC30E716D2D1E9F4240185
:10119000F9EAF43400FAEBF43400FBECF43400FC2C
:1011A000120A8A020A3BAA82AB83A2F73392D16069
:1011B00002D2F7F582ACF0226040F825825002742A
:1011C000FFF582E824F8501ECCCBCAF9E4CC24F811
:1011D0005014CBCAF9E4CB24F8500BCAF9E4CA2462
:1011E000F8500379002224086010F8C3EC13FCEBDC
:1011F00013FBEA13FAE913F9D8F122AA82AB83AC04
:10120000F07D007E008A828B838CF012075FFFA343
:10121000AA82AB83EF60070DBD00EA0E80E78D82E6
:101220008E8322E582C583F582A2D133A2D592D1E5
:101230001392D5ECCFFCEBCEFBEACDFA22000000F6
:00000001FF
